{
  "_format": "hh-sol-artifact-1",
  "contractName": "Answer",
  "sourceName": "contracts/Answer.sol",
  "abi": [
    {
      "inputs": [],
      "stateMutability": "nonpayable",
      "type": "constructor"
    },
    {
      "inputs": [],
      "name": "getAnswers",
      "outputs": [
        {
          "components": [
            {
              "internalType": "address",
              "name": "answerer",
              "type": "address"
            },
            {
              "internalType": "uint256",
              "name": "timestamp",
              "type": "uint256"
            },
            {
              "internalType": "uint256",
              "name": "id",
              "type": "uint256"
            },
            {
              "internalType": "uint256",
              "name": "quizId",
              "type": "uint256"
            },
            {
              "internalType": "bool[2]",
              "name": "isPassings",
              "type": "bool[2]"
            },
            {
              "internalType": "address[2]",
              "name": "markers",
              "type": "address[2]"
            }
          ],
          "internalType": "struct Answer.answer[]",
          "name": "",
          "type": "tuple[]"
        }
      ],
      "stateMutability": "view",
      "type": "function"
    },
    {
      "inputs": [
        {
          "internalType": "uint256",
          "name": "_quizId",
          "type": "uint256"
        }
      ],
      "name": "requestScoring",
      "outputs": [
        {
          "internalType": "bool",
          "name": "",
          "type": "bool"
        }
      ],
      "stateMutability": "nonpayable",
      "type": "function"
    },
    {
      "inputs": [],
      "name": "skillSbtContract",
      "outputs": [
        {
          "internalType": "contract SkillSbt",
          "name": "",
          "type": "address"
        }
      ],
      "stateMutability": "view",
      "type": "function"
    }
  ],
  "bytecode": "0x608060405273c6e7df5e7b4f2a278906862b61205850344d4e7d600260006101000a81548173ffffffffffffffffffffffffffffffffffffffff021916908373ffffffffffffffffffffffffffffffffffffffff1602179055503480156200006657600080fd5b50620000b26040518060400160405280601981526020017f57652068617665206265656e20636f6e737472756374656421000000000000008152506200012260201b620008791760201c565b600260009054906101000a900473ffffffffffffffffffffffffffffffffffffffff16600360006101000a81548173ffffffffffffffffffffffffffffffffffffffff021916908373ffffffffffffffffffffffffffffffffffffffff16021790555060008081905550620002ac565b620001c28160405160240162000139919062000288565b6040516020818303038152906040527f41304fac000000000000000000000000000000000000000000000000000000007bffffffffffffffffffffffffffffffffffffffffffffffffffffffff19166020820180517bffffffffffffffffffffffffffffffffffffffffffffffffffffffff8381831617835250505050620001c560201b60201c565b50565b60008151905060006a636f6e736f6c652e6c6f679050602083016000808483855afa5050505050565b600081519050919050565b600082825260208201905092915050565b60005b838110156200022a5780820151818401526020810190506200020d565b60008484015250505050565b6000601f19601f8301169050919050565b60006200025482620001ee565b620002608185620001f9565b9350620002728185602086016200020a565b6200027d8162000236565b840191505092915050565b60006020820190508181036000830152620002a4818462000247565b905092915050565b6112cb80620002bc6000396000f3fe608060405234801561001057600080fd5b50600436106100415760003560e01c806387dff66b14610046578063c793fcf914610064578063d8de1af514610082575b600080fd5b61004e6100b2565b60405161005b9190610b0f565b60405180910390f35b61006c6100d8565b6040516100799190610de3565b60405180910390f35b61009c60048036038101906100979190610e45565b610290565b6040516100a99190610e81565b60405180910390f35b600360009054906101000a900473ffffffffffffffffffffffffffffffffffffffff1681565b60606001805480602002602001604051908101604052809291908181526020016000905b8282101561028757838290600052602060002090600702016040518060c00160405290816000820160009054906101000a900473ffffffffffffffffffffffffffffffffffffffff1673ffffffffffffffffffffffffffffffffffffffff1673ffffffffffffffffffffffffffffffffffffffff168152602001600182015481526020016002820154815260200160038201548152602001600482016002806020026040519081016040528092919082600280156101f4576020028201916000905b82829054906101000a900460ff161515815260200190600101906020826000010492830192600103820291508084116101be5790505b505050505081526020016005820160028060200260405190810160405280929190826002801561026f576020028201915b8160009054906101000a900473ffffffffffffffffffffffffffffffffffffffff1673ffffffffffffffffffffffffffffffffffffffff1681526020019060010190808311610225575b505050505081525050815260200190600101906100fc565b50505050905090565b600080600360009054906101000a900473ffffffffffffffffffffffffffffffffffffffff1673ffffffffffffffffffffffffffffffffffffffff1663de7308266040518163ffffffff1660e01b8152600401600060405180830381865afa158015610300573d6000803e3d6000fd5b505050506040513d6000823e3d601f19601f8201168201806040525081019061032991906110db565b9050600061033561093b565b60005b83518110156105cf578584828151811061035557610354611124565b5b602002602001015160600151036105bc5783818151811061037957610378611124565b5b60200260200101516000015182846002811061039857610397611124565b5b602002019073ffffffffffffffffffffffffffffffffffffffff16908173ffffffffffffffffffffffffffffffffffffffff1681525050600360009054906101000a900473ffffffffffffffffffffffffffffffffffffffff1673ffffffffffffffffffffffffffffffffffffffff1663ad575341876040518263ffffffff1660e01b815260040161042a9190611162565b600060405180830381600087803b15801561044457600080fd5b505af1158015610458573d6000803e3d6000fd5b505050508280610467906111ac565b935050600283106105bb5760016040518060c001604052803373ffffffffffffffffffffffffffffffffffffffff168152602001428152602001600054815260200188815260200160405180604001604052806000151515158152602001600015151515815250815260200184815250908060018154018082558091505060019003906000526020600020906007020160009091909190915060008201518160000160006101000a81548173ffffffffffffffffffffffffffffffffffffffff021916908373ffffffffffffffffffffffffffffffffffffffff16021790555060208201518160010155604082015181600201556060820151816003015560808201518160040190600261057c92919061095d565b5060a0820151816005019060026105949291906109f6565b5050506000808154809291906105a9906111ac565b91905055506001945050505050610874565b5b80806105c7906111ac565b915050610338565b5060005b835181101561086b57858482815181106105f0576105ef611124565b5b60200260200101516060015103156108585783818151811061061557610614611124565b5b60200260200101516000015182846002811061063457610633611124565b5b602002019073ffffffffffffffffffffffffffffffffffffffff16908173ffffffffffffffffffffffffffffffffffffffff1681525050600360009054906101000a900473ffffffffffffffffffffffffffffffffffffffff1673ffffffffffffffffffffffffffffffffffffffff1663ad575341876040518263ffffffff1660e01b81526004016106c69190611162565b600060405180830381600087803b1580156106e057600080fd5b505af11580156106f4573d6000803e3d6000fd5b505050508280610703906111ac565b935050600283106108575760016040518060c001604052803373ffffffffffffffffffffffffffffffffffffffff168152602001428152602001600054815260200188815260200160405180604001604052806000151515158152602001600015151515815250815260200184815250908060018154018082558091505060019003906000526020600020906007020160009091909190915060008201518160000160006101000a81548173ffffffffffffffffffffffffffffffffffffffff021916908373ffffffffffffffffffffffffffffffffffffffff16021790555060208201518160010155604082015181600201556060820151816003015560808201518160040190600261081892919061095d565b5060a0820151816005019060026108309291906109f6565b505050600080815480929190610845906111ac565b91905055506001945050505050610874565b5b8080610863906111ac565b9150506105d3565b50600093505050505b919050565b61090f8160405160240161088d9190611273565b6040516020818303038152906040527f41304fac000000000000000000000000000000000000000000000000000000007bffffffffffffffffffffffffffffffffffffffffffffffffffffffff19166020820180517bffffffffffffffffffffffffffffffffffffffffffffffffffffffff8381831617835250505050610912565b50565b60008151905060006a636f6e736f6c652e6c6f679050602083016000808483855afa5050505050565b6040518060400160405280600290602082028036833780820191505090505090565b826002601f016020900481019282156109e55791602002820160005b838211156109b657835183826101000a81548160ff0219169083151502179055509260200192600101602081600001049283019260010302610979565b80156109e35782816101000a81549060ff02191690556001016020816000010492830192600103026109b6565b505b5090506109f29190610a73565b5090565b8260028101928215610a62579160200282015b82811115610a615782518260006101000a81548173ffffffffffffffffffffffffffffffffffffffff021916908373ffffffffffffffffffffffffffffffffffffffff16021790555091602001919060010190610a09565b5b509050610a6f9190610a73565b5090565b5b80821115610a8c576000816000905550600101610a74565b5090565b600073ffffffffffffffffffffffffffffffffffffffff82169050919050565b6000819050919050565b6000610ad5610ad0610acb84610a90565b610ab0565b610a90565b9050919050565b6000610ae782610aba565b9050919050565b6000610af982610adc565b9050919050565b610b0981610aee565b82525050565b6000602082019050610b246000830184610b00565b92915050565b600081519050919050565b600082825260208201905092915050565b6000819050602082019050919050565b6000610b6182610a90565b9050919050565b610b7181610b56565b82525050565b6000819050919050565b610b8a81610b77565b82525050565b600060029050919050565b600081905092915050565b6000819050919050565b60008115159050919050565b610bc581610bb0565b82525050565b6000610bd78383610bbc565b60208301905092915050565b6000602082019050919050565b610bf981610b90565b610c038184610b9b565b9250610c0e82610ba6565b8060005b83811015610c3f578151610c268782610bcb565b9650610c3183610be3565b925050600181019050610c12565b505050505050565b600060029050919050565b600081905092915050565b6000819050919050565b6000610c738383610b68565b60208301905092915050565b6000602082019050919050565b610c9581610c47565b610c9f8184610c52565b9250610caa82610c5d565b8060005b83811015610cdb578151610cc28782610c67565b9650610ccd83610c7f565b925050600181019050610cae565b505050505050565b61010082016000820151610cfa6000850182610b68565b506020820151610d0d6020850182610b81565b506040820151610d206040850182610b81565b506060820151610d336060850182610b81565b506080820151610d466080850182610bf0565b5060a0820151610d5960c0850182610c8c565b50505050565b6000610d6b8383610ce3565b6101008301905092915050565b6000602082019050919050565b6000610d9082610b2a565b610d9a8185610b35565b9350610da583610b46565b8060005b83811015610dd6578151610dbd8882610d5f565b9750610dc883610d78565b925050600181019050610da9565b5085935050505092915050565b60006020820190508181036000830152610dfd8184610d85565b905092915050565b6000604051905090565b600080fd5b600080fd5b610e2281610b77565b8114610e2d57600080fd5b50565b600081359050610e3f81610e19565b92915050565b600060208284031215610e5b57610e5a610e0f565b5b6000610e6984828501610e30565b91505092915050565b610e7b81610bb0565b82525050565b6000602082019050610e966000830184610e72565b92915050565b600080fd5b6000601f19601f8301169050919050565b7f4e487b7100000000000000000000000000000000000000000000000000000000600052604160045260246000fd5b610eea82610ea1565b810181811067ffffffffffffffff82111715610f0957610f08610eb2565b5b80604052505050565b6000610f1c610e05565b9050610f288282610ee1565b919050565b600067ffffffffffffffff821115610f4857610f47610eb2565b5b602082029050602081019050919050565b600080fd5b600080fd5b610f6c81610b56565b8114610f7757600080fd5b50565b600081519050610f8981610f63565b92915050565b600081519050610f9e81610e19565b92915050565b600060c08284031215610fba57610fb9610f5e565b5b610fc460c0610f12565b90506000610fd484828501610f7a565b6000830152506020610fe884828501610f8f565b6020830152506040610ffc84828501610f8f565b604083015250606061101084828501610f8f565b606083015250608061102484828501610f8f565b60808301525060a061103884828501610f7a565b60a08301525092915050565b600061105761105284610f2d565b610f12565b90508083825260208201905060c0840283018581111561107a57611079610f59565b5b835b818110156110a3578061108f8882610fa4565b84526020840193505060c08101905061107c565b5050509392505050565b600082601f8301126110c2576110c1610e9c565b5b81516110d2848260208601611044565b91505092915050565b6000602082840312156110f1576110f0610e0f565b5b600082015167ffffffffffffffff81111561110f5761110e610e14565b5b61111b848285016110ad565b91505092915050565b7f4e487b7100000000000000000000000000000000000000000000000000000000600052603260045260246000fd5b61115c81610b77565b82525050565b60006020820190506111776000830184611153565b92915050565b7f4e487b7100000000000000000000000000000000000000000000000000000000600052601160045260246000fd5b60006111b782610b77565b91507fffffffffffffffffffffffffffffffffffffffffffffffffffffffffffffffff82036111e9576111e861117d565b5b600182019050919050565b600081519050919050565b600082825260208201905092915050565b60005b8381101561122e578082015181840152602081019050611213565b60008484015250505050565b6000611245826111f4565b61124f81856111ff565b935061125f818560208601611210565b61126881610ea1565b840191505092915050565b6000602082019050818103600083015261128d818461123a565b90509291505056fea2646970667358221220869fd2018fb4a053378c37dc2ea28d9351ba2c88d4087628b489d3d2ed02791664736f6c63430008110033",
  "linkReferences": {},
  "deployedLinkReferences": {}
}