{
  "_format": "hh-sol-artifact-1",
  "contractName": "Quiz",
  "sourceName": "contracts/Quiz.sol",
  "abi": [
    {
      "inputs": [],
      "stateMutability": "nonpayable",
      "type": "constructor"
    },
    {
      "inputs": [],
      "name": "getQuizzes",
      "outputs": [
        {
          "components": [
            {
              "internalType": "address",
              "name": "quizner",
              "type": "address"
            },
            {
              "internalType": "uint256",
              "name": "timestamp",
              "type": "uint256"
            },
            {
              "internalType": "uint256",
              "name": "id",
              "type": "uint256"
            },
            {
              "internalType": "string",
              "name": "title",
              "type": "string"
            },
            {
              "internalType": "string",
              "name": "desc",
              "type": "string"
            }
          ],
          "internalType": "struct Quiz.quiz[]",
          "name": "",
          "type": "tuple[]"
        }
      ],
      "stateMutability": "view",
      "type": "function"
    },
    {
      "inputs": [
        {
          "internalType": "string",
          "name": "_title",
          "type": "string"
        },
        {
          "internalType": "string",
          "name": "_desc",
          "type": "string"
        }
      ],
      "name": "uploadQuiz",
      "outputs": [],
      "stateMutability": "nonpayable",
      "type": "function"
    }
  ],
  "bytecode": "0x60806040523480156200001157600080fd5b506200005d6040518060400160405280601981526020017f57652068617665206265656e20636f6e737472756374656421000000000000008152506200006a60201b620003701760201c565b60008081905550620001f4565b6200010a81604051602401620000819190620001d0565b6040516020818303038152906040527f41304fac000000000000000000000000000000000000000000000000000000007bffffffffffffffffffffffffffffffffffffffffffffffffffffffff19166020820180517bffffffffffffffffffffffffffffffffffffffffffffffffffffffff83818316178352505050506200010d60201b60201c565b50565b60008151905060006a636f6e736f6c652e6c6f679050602083016000808483855afa5050505050565b600081519050919050565b600082825260208201905092915050565b60005b838110156200017257808201518184015260208101905062000155565b60008484015250505050565b6000601f19601f8301169050919050565b60006200019c8262000136565b620001a8818562000141565b9350620001ba81856020860162000152565b620001c5816200017e565b840191505092915050565b60006020820190508181036000830152620001ec81846200018f565b905092915050565b610c3580620002046000396000f3fe608060405234801561001057600080fd5b50600436106100365760003560e01c80635ecd45b91461003b578063bea27d1514610059575b600080fd5b610043610075565b604051610050919061065b565b60405180910390f35b610073600480360381019061006e91906107c6565b610262565b005b60606001805480602002602001604051908101604052809291908181526020016000905b8282101561025957838290600052602060002090600502016040518060a00160405290816000820160009054906101000a900473ffffffffffffffffffffffffffffffffffffffff1673ffffffffffffffffffffffffffffffffffffffff1673ffffffffffffffffffffffffffffffffffffffff16815260200160018201548152602001600282015481526020016003820180546101369061086d565b80601f01602080910402602001604051908101604052809291908181526020018280546101629061086d565b80156101af5780601f10610184576101008083540402835291602001916101af565b820191906000526020600020905b81548152906001019060200180831161019257829003601f168201915b505050505081526020016004820180546101c89061086d565b80601f01602080910402602001604051908101604052809291908181526020018280546101f49061086d565b80156102415780601f1061021657610100808354040283529160200191610241565b820191906000526020600020905b81548152906001019060200180831161022457829003601f168201915b50505050508152505081526020019060010190610099565b50505050905090565b60016040518060a001604052803373ffffffffffffffffffffffffffffffffffffffff168152602001428152602001600054815260200184815260200183815250908060018154018082558091505060019003906000526020600020906005020160009091909190915060008201518160000160006101000a81548173ffffffffffffffffffffffffffffffffffffffff021916908373ffffffffffffffffffffffffffffffffffffffff1602179055506020820151816001015560408201518160020155606082015181600301908161033c9190610a4a565b5060808201518160040190816103529190610a4a565b50505060008081548092919061036790610b4b565b91905055505050565b610406816040516024016103849190610bdd565b6040516020818303038152906040527f41304fac000000000000000000000000000000000000000000000000000000007bffffffffffffffffffffffffffffffffffffffffffffffffffffffff19166020820180517bffffffffffffffffffffffffffffffffffffffffffffffffffffffff8381831617835250505050610409565b50565b60008151905060006a636f6e736f6c652e6c6f679050602083016000808483855afa5050505050565b600081519050919050565b600082825260208201905092915050565b6000819050602082019050919050565b600073ffffffffffffffffffffffffffffffffffffffff82169050919050565b60006104898261045e565b9050919050565b6104998161047e565b82525050565b6000819050919050565b6104b28161049f565b82525050565b600081519050919050565b600082825260208201905092915050565b60005b838110156104f25780820151818401526020810190506104d7565b60008484015250505050565b6000601f19601f8301169050919050565b600061051a826104b8565b61052481856104c3565b93506105348185602086016104d4565b61053d816104fe565b840191505092915050565b600060a0830160008301516105606000860182610490565b50602083015161057360208601826104a9565b50604083015161058660408601826104a9565b506060830151848203606086015261059e828261050f565b915050608083015184820360808601526105b8828261050f565b9150508091505092915050565b60006105d18383610548565b905092915050565b6000602082019050919050565b60006105f182610432565b6105fb818561043d565b93508360208202850161060d8561044e565b8060005b85811015610649578484038952815161062a85826105c5565b9450610635836105d9565b925060208a01995050600181019050610611565b50829750879550505050505092915050565b6000602082019050818103600083015261067581846105e6565b905092915050565b6000604051905090565b600080fd5b600080fd5b600080fd5b600080fd5b7f4e487b7100000000000000000000000000000000000000000000000000000000600052604160045260246000fd5b6106d3826104fe565b810181811067ffffffffffffffff821117156106f2576106f161069b565b5b80604052505050565b600061070561067d565b905061071182826106ca565b919050565b600067ffffffffffffffff8211156107315761073061069b565b5b61073a826104fe565b9050602081019050919050565b82818337600083830152505050565b600061076961076484610716565b6106fb565b90508281526020810184848401111561078557610784610696565b5b610790848285610747565b509392505050565b600082601f8301126107ad576107ac610691565b5b81356107bd848260208601610756565b91505092915050565b600080604083850312156107dd576107dc610687565b5b600083013567ffffffffffffffff8111156107fb576107fa61068c565b5b61080785828601610798565b925050602083013567ffffffffffffffff8111156108285761082761068c565b5b61083485828601610798565b9150509250929050565b7f4e487b7100000000000000000000000000000000000000000000000000000000600052602260045260246000fd5b6000600282049050600182168061088557607f821691505b6020821081036108985761089761083e565b5b50919050565b60008190508160005260206000209050919050565b60006020601f8301049050919050565b600082821b905092915050565b6000600883026109007fffffffffffffffffffffffffffffffffffffffffffffffffffffffffffffffff826108c3565b61090a86836108c3565b95508019841693508086168417925050509392505050565b6000819050919050565b600061094761094261093d8461049f565b610922565b61049f565b9050919050565b6000819050919050565b6109618361092c565b61097561096d8261094e565b8484546108d0565b825550505050565b600090565b61098a61097d565b610995818484610958565b505050565b5b818110156109b9576109ae600082610982565b60018101905061099b565b5050565b601f8211156109fe576109cf8161089e565b6109d8846108b3565b810160208510156109e7578190505b6109fb6109f3856108b3565b83018261099a565b50505b505050565b600082821c905092915050565b6000610a2160001984600802610a03565b1980831691505092915050565b6000610a3a8383610a10565b9150826002028217905092915050565b610a53826104b8565b67ffffffffffffffff811115610a6c57610a6b61069b565b5b610a76825461086d565b610a818282856109bd565b600060209050601f831160018114610ab45760008415610aa2578287015190505b610aac8582610a2e565b865550610b14565b601f198416610ac28661089e565b60005b82811015610aea57848901518255600182019150602085019450602081019050610ac5565b86831015610b075784890151610b03601f891682610a10565b8355505b6001600288020188555050505b505050505050565b7f4e487b7100000000000000000000000000000000000000000000000000000000600052601160045260246000fd5b6000610b568261049f565b91507fffffffffffffffffffffffffffffffffffffffffffffffffffffffffffffffff8203610b8857610b87610b1c565b5b600182019050919050565b600082825260208201905092915050565b6000610baf826104b8565b610bb98185610b93565b9350610bc98185602086016104d4565b610bd2816104fe565b840191505092915050565b60006020820190508181036000830152610bf78184610ba4565b90509291505056fea26469706673582212209eb0ca3157c8e443170f7f02328fb500c1632e26bc00f457241a09244325dd9364736f6c63430008110033",
  "linkReferences": {},
  "deployedLinkReferences": {}
}