{
  "_format": "hh-sol-artifact-1",
  "contractName": "SkillSbt",
  "sourceName": "contracts/SkillSbt.sol",
  "abi": [
    {
      "inputs": [],
      "stateMutability": "nonpayable",
      "type": "constructor"
    },
    {
      "inputs": [],
      "name": "getSkillSbts",
      "outputs": [
        {
          "components": [
            {
              "internalType": "address",
              "name": "owner",
              "type": "address"
            },
            {
              "internalType": "uint256",
              "name": "timestamp",
              "type": "uint256"
            },
            {
              "internalType": "uint256",
              "name": "id",
              "type": "uint256"
            },
            {
              "internalType": "uint256",
              "name": "quizId",
              "type": "uint256"
            },
            {
              "internalType": "uint256",
              "name": "scoringQuizId",
              "type": "uint256"
            },
            {
              "internalType": "address",
              "name": "answerer",
              "type": "address"
            }
          ],
          "internalType": "struct SkillSbt.skillSbt[]",
          "name": "",
          "type": "tuple[]"
        }
      ],
      "stateMutability": "view",
      "type": "function"
    },
    {
      "inputs": [
        {
          "internalType": "uint256",
          "name": "_quizId",
          "type": "uint256"
        }
      ],
      "name": "mint",
      "outputs": [],
      "stateMutability": "payable",
      "type": "function"
    },
    {
      "inputs": [
        {
          "internalType": "uint256",
          "name": "_quizId",
          "type": "uint256"
        }
      ],
      "name": "requestScoring",
      "outputs": [
        {
          "components": [
            {
              "internalType": "address",
              "name": "owner",
              "type": "address"
            },
            {
              "internalType": "uint256",
              "name": "timestamp",
              "type": "uint256"
            },
            {
              "internalType": "uint256",
              "name": "id",
              "type": "uint256"
            },
            {
              "internalType": "uint256",
              "name": "quizId",
              "type": "uint256"
            },
            {
              "internalType": "uint256",
              "name": "scoringQuizId",
              "type": "uint256"
            },
            {
              "internalType": "address",
              "name": "answerer",
              "type": "address"
            }
          ],
          "internalType": "struct SkillSbt.skillSbt[]",
          "name": "",
          "type": "tuple[]"
        }
      ],
      "stateMutability": "nonpayable",
      "type": "function"
    }
  ],
  "bytecode": "0x60806040527fffffffffffffffffffffffffffffffffffffffffffffffffffffffffffffffff6002553480156200003557600080fd5b50620000816040518060400160405280601981526020017f57652068617665206265656e20636f6e73747275637465642100000000000000815250620003c360201b620009081760201c565b73e7f1725e7734ce288f8367e1bb143e90bb3f05126000806101000a81548173ffffffffffffffffffffffffffffffffffffffff021916908373ffffffffffffffffffffffffffffffffffffffff160217905550600060018190555060036040518060c001604052807370997970c51812dc3a010c7d01b50e0d17dc79c873ffffffffffffffffffffffffffffffffffffffff1681526020014281526020016001548152602001600081526020016002548152602001600073ffffffffffffffffffffffffffffffffffffffff16815250908060018154018082558091505060019003906000526020600020906006020160009091909190915060008201518160000160006101000a81548173ffffffffffffffffffffffffffffffffffffffff021916908373ffffffffffffffffffffffffffffffffffffffff1602179055506020820151816001015560408201518160020155606082015181600301556080820151816004015560a08201518160050160006101000a81548173ffffffffffffffffffffffffffffffffffffffff021916908373ffffffffffffffffffffffffffffffffffffffff1602179055505050600160008154809291906200024890620004c8565b919050555060036040518060c00160405280733c44cdddb6a900fa2b585dd299e03d12fa4293bc73ffffffffffffffffffffffffffffffffffffffff1681526020014281526020016001548152602001600081526020016002548152602001600073ffffffffffffffffffffffffffffffffffffffff16815250908060018154018082558091505060019003906000526020600020906006020160009091909190915060008201518160000160006101000a81548173ffffffffffffffffffffffffffffffffffffffff021916908373ffffffffffffffffffffffffffffffffffffffff1602179055506020820151816001015560408201518160020155606082015181600301556080820151816004015560a08201518160050160006101000a81548173ffffffffffffffffffffffffffffffffffffffff021916908373ffffffffffffffffffffffffffffffffffffffff160217905550505060016000815480929190620003b890620004c8565b9190505550620005d3565b6200046381604051602401620003da9190620005af565b6040516020818303038152906040527f41304fac000000000000000000000000000000000000000000000000000000007bffffffffffffffffffffffffffffffffffffffffffffffffffffffff19166020820180517bffffffffffffffffffffffffffffffffffffffffffffffffffffffff83818316178352505050506200046660201b60201c565b50565b60008151905060006a636f6e736f6c652e6c6f679050602083016000808483855afa5050505050565b7f4e487b7100000000000000000000000000000000000000000000000000000000600052601160045260246000fd5b6000819050919050565b6000620004d582620004be565b91507fffffffffffffffffffffffffffffffffffffffffffffffffffffffffffffffff82036200050a57620005096200048f565b5b600182019050919050565b600081519050919050565b600082825260208201905092915050565b60005b838110156200055157808201518184015260208101905062000534565b60008484015250505050565b6000601f19601f8301169050919050565b60006200057b8262000515565b62000587818562000520565b93506200059981856020860162000531565b620005a4816200055d565b840191505092915050565b60006020820190508181036000830152620005cb81846200056e565b905092915050565b610d5c80620005e36000396000f3fe6080604052600436106100345760003560e01c8063a0712d6814610039578063d8de1af514610055578063de73082614610092575b600080fd5b610053600480360381019061004e9190610a05565b6100bd565b005b34801561006157600080fd5b5061007c60048036038101906100779190610a05565b610219565b6040516100899190610bac565b60405180910390f35b34801561009e57600080fd5b506100a76107d5565b6040516100b49190610bac565b60405180910390f35b60036040518060c001604052803373ffffffffffffffffffffffffffffffffffffffff16815260200142815260200160015481526020018381526020016002548152602001600073ffffffffffffffffffffffffffffffffffffffff16815250908060018154018082558091505060019003906000526020600020906006020160009091909190915060008201518160000160006101000a81548173ffffffffffffffffffffffffffffffffffffffff021916908373ffffffffffffffffffffffffffffffffffffffff1602179055506020820151816001015560408201518160020155606082015181600301556080820151816004015560a08201518160050160006101000a81548173ffffffffffffffffffffffffffffffffffffffff021916908373ffffffffffffffffffffffffffffffffffffffff16021790555050506001600081548092919061021190610bfd565b919050555050565b60606000805b60038054905081101561047357836003828154811061024157610240610c45565b5b90600052602060002090600602016003015403610460576002546003828154811061026f5761026e610c45565b5b9060005260206000209060060201600401540361046057836003828154811061029b5761029a610c45565b5b90600052602060002090600602016004018190555033600382815481106102c5576102c4610c45565b5b906000526020600020906006020160050160006101000a81548173ffffffffffffffffffffffffffffffffffffffff021916908373ffffffffffffffffffffffffffffffffffffffff160217905550818061031f90610bfd565b9250506002821061045f576003805480602002602001604051908101604052809291908181526020016000905b8282101561045257838290600052602060002090600602016040518060c00160405290816000820160009054906101000a900473ffffffffffffffffffffffffffffffffffffffff1673ffffffffffffffffffffffffffffffffffffffff1673ffffffffffffffffffffffffffffffffffffffff168152602001600182015481526020016002820154815260200160038201548152602001600482015481526020016005820160009054906101000a900473ffffffffffffffffffffffffffffffffffffffff1673ffffffffffffffffffffffffffffffffffffffff1673ffffffffffffffffffffffffffffffffffffffff16815250508152602001906001019061034c565b50505050925050506107d0565b5b808061046b90610bfd565b91505061021f565b5060005b60038054905081101561069f576002546003828154811061049b5761049a610c45565b5b9060005260206000209060060201600401540361068c5783600382815481106104c7576104c6610c45565b5b90600052602060002090600602016004018190555033600382815481106104f1576104f0610c45565b5b906000526020600020906006020160050160006101000a81548173ffffffffffffffffffffffffffffffffffffffff021916908373ffffffffffffffffffffffffffffffffffffffff160217905550818061054b90610bfd565b9250506002821061068b576003805480602002602001604051908101604052809291908181526020016000905b8282101561067e57838290600052602060002090600602016040518060c00160405290816000820160009054906101000a900473ffffffffffffffffffffffffffffffffffffffff1673ffffffffffffffffffffffffffffffffffffffff1673ffffffffffffffffffffffffffffffffffffffff168152602001600182015481526020016002820154815260200160038201548152602001600482015481526020016005820160009054906101000a900473ffffffffffffffffffffffffffffffffffffffff1673ffffffffffffffffffffffffffffffffffffffff1673ffffffffffffffffffffffffffffffffffffffff168152505081526020019060010190610578565b50505050925050506107d0565b5b808061069790610bfd565b915050610477565b506003805480602002602001604051908101604052809291908181526020016000905b828210156107c857838290600052602060002090600602016040518060c00160405290816000820160009054906101000a900473ffffffffffffffffffffffffffffffffffffffff1673ffffffffffffffffffffffffffffffffffffffff1673ffffffffffffffffffffffffffffffffffffffff168152602001600182015481526020016002820154815260200160038201548152602001600482015481526020016005820160009054906101000a900473ffffffffffffffffffffffffffffffffffffffff1673ffffffffffffffffffffffffffffffffffffffff1673ffffffffffffffffffffffffffffffffffffffff1681525050815260200190600101906106c2565b505050509150505b919050565b60606003805480602002602001604051908101604052809291908181526020016000905b828210156108ff57838290600052602060002090600602016040518060c00160405290816000820160009054906101000a900473ffffffffffffffffffffffffffffffffffffffff1673ffffffffffffffffffffffffffffffffffffffff1673ffffffffffffffffffffffffffffffffffffffff168152602001600182015481526020016002820154815260200160038201548152602001600482015481526020016005820160009054906101000a900473ffffffffffffffffffffffffffffffffffffffff1673ffffffffffffffffffffffffffffffffffffffff1673ffffffffffffffffffffffffffffffffffffffff1681525050815260200190600101906107f9565b50505050905090565b61099e8160405160240161091c9190610d04565b6040516020818303038152906040527f41304fac000000000000000000000000000000000000000000000000000000007bffffffffffffffffffffffffffffffffffffffffffffffffffffffff19166020820180517bffffffffffffffffffffffffffffffffffffffffffffffffffffffff83818316178352505050506109a1565b50565b60008151905060006a636f6e736f6c652e6c6f679050602083016000808483855afa5050505050565b600080fd5b6000819050919050565b6109e2816109cf565b81146109ed57600080fd5b50565b6000813590506109ff816109d9565b92915050565b600060208284031215610a1b57610a1a6109ca565b5b6000610a29848285016109f0565b91505092915050565b600081519050919050565b600082825260208201905092915050565b6000819050602082019050919050565b600073ffffffffffffffffffffffffffffffffffffffff82169050919050565b6000610a8982610a5e565b9050919050565b610a9981610a7e565b82525050565b610aa8816109cf565b82525050565b60c082016000820151610ac46000850182610a90565b506020820151610ad76020850182610a9f565b506040820151610aea6040850182610a9f565b506060820151610afd6060850182610a9f565b506080820151610b106080850182610a9f565b5060a0820151610b2360a0850182610a90565b50505050565b6000610b358383610aae565b60c08301905092915050565b6000602082019050919050565b6000610b5982610a32565b610b638185610a3d565b9350610b6e83610a4e565b8060005b83811015610b9f578151610b868882610b29565b9750610b9183610b41565b925050600181019050610b72565b5085935050505092915050565b60006020820190508181036000830152610bc68184610b4e565b905092915050565b7f4e487b7100000000000000000000000000000000000000000000000000000000600052601160045260246000fd5b6000610c08826109cf565b91507fffffffffffffffffffffffffffffffffffffffffffffffffffffffffffffffff8203610c3a57610c39610bce565b5b600182019050919050565b7f4e487b7100000000000000000000000000000000000000000000000000000000600052603260045260246000fd5b600081519050919050565b600082825260208201905092915050565b60005b83811015610cae578082015181840152602081019050610c93565b60008484015250505050565b6000601f19601f8301169050919050565b6000610cd682610c74565b610ce08185610c7f565b9350610cf0818560208601610c90565b610cf981610cba565b840191505092915050565b60006020820190508181036000830152610d1e8184610ccb565b90509291505056fea26469706673582212208fd79ce960129088002fe8344f1e0d150050e7208b2476a9ac2770ace0d765c964736f6c63430008110033",
  "linkReferences": {},
  "deployedLinkReferences": {}
}