{
  "_format": "hh-sol-artifact-1",
  "contractName": "SkillSbt",
  "sourceName": "contracts/SkillSbt.sol",
  "abi": [
    {
      "inputs": [],
      "stateMutability": "nonpayable",
      "type": "constructor"
    },
    {
      "inputs": [],
      "name": "getSkillSbts",
      "outputs": [
        {
          "components": [
            {
              "internalType": "address",
              "name": "owner",
              "type": "address"
            },
            {
              "internalType": "uint256",
              "name": "timestamp",
              "type": "uint256"
            },
            {
              "internalType": "uint256",
              "name": "id",
              "type": "uint256"
            },
            {
              "internalType": "uint256",
              "name": "quizId",
              "type": "uint256"
            }
          ],
          "internalType": "struct SkillSbt.skillSbt[]",
          "name": "",
          "type": "tuple[]"
        }
      ],
      "stateMutability": "view",
      "type": "function"
    },
    {
      "inputs": [
        {
          "internalType": "uint256",
          "name": "_quizId",
          "type": "uint256"
        }
      ],
      "name": "mint",
      "outputs": [],
      "stateMutability": "nonpayable",
      "type": "function"
    }
  ],
  "bytecode": "0x608060405234801561001057600080fd5b506100596040518060400160405280601981526020017f57652068617665206265656e20636f6e7374727563746564210000000000000081525061029660201b61022e1760201c565b7329684e9108a179c43e3bc01dead8076f8e5414e76000806101000a81548173ffffffffffffffffffffffffffffffffffffffff021916908373ffffffffffffffffffffffffffffffffffffffff1602179055506000600181905550600260405180608001604052803373ffffffffffffffffffffffffffffffffffffffff16815260200142815260200160015481526020016000815250908060018154018082558091505060019003906000526020600020906004020160009091909190915060008201518160000160006101000a81548173ffffffffffffffffffffffffffffffffffffffff021916908373ffffffffffffffffffffffffffffffffffffffff16021790555060208201518160010155604082015181600201556060820151816003015550506001600081548092919061019490610397565b91905055506002604051806080016040528073019281ce34f8b8739991713d5e09d0c290b5388673ffffffffffffffffffffffffffffffffffffffff16815260200142815260200160015481526020016000815250908060018154018082558091505060019003906000526020600020906004020160009091909190915060008201518160000160006101000a81548173ffffffffffffffffffffffffffffffffffffffff021916908373ffffffffffffffffffffffffffffffffffffffff16021790555060208201518160010155604082015181600201556060820151816003015550506001600081548092919061028c90610397565b9190505550610491565b610332816040516024016102aa919061046f565b6040516020818303038152906040527f41304fac000000000000000000000000000000000000000000000000000000007bffffffffffffffffffffffffffffffffffffffffffffffffffffffff19166020820180517bffffffffffffffffffffffffffffffffffffffffffffffffffffffff838183161783525050505061033560201b60201c565b50565b60008151905060006a636f6e736f6c652e6c6f679050602083016000808483855afa5050505050565b7f4e487b7100000000000000000000000000000000000000000000000000000000600052601160045260246000fd5b6000819050919050565b60006103a28261038d565b91507fffffffffffffffffffffffffffffffffffffffffffffffffffffffffffffffff82036103d4576103d361035e565b5b600182019050919050565b600081519050919050565b600082825260208201905092915050565b60005b838110156104195780820151818401526020810190506103fe565b60008484015250505050565b6000601f19601f8301169050919050565b6000610441826103df565b61044b81856103ea565b935061045b8185602086016103fb565b61046481610425565b840191505092915050565b600060208201905081810360008301526104898184610436565b905092915050565b61062d806104a06000396000f3fe608060405234801561001057600080fd5b50600436106100365760003560e01c8063a0712d681461003b578063de73082614610057575b600080fd5b6100556004803603810190610050919061032b565b610075565b005b61005f61015b565b60405161006c91906104ac565b60405180910390f35b600260405180608001604052803373ffffffffffffffffffffffffffffffffffffffff168152602001428152602001600154815260200183815250908060018154018082558091505060019003906000526020600020906004020160009091909190915060008201518160000160006101000a81548173ffffffffffffffffffffffffffffffffffffffff021916908373ffffffffffffffffffffffffffffffffffffffff160217905550602082015181600101556040820151816002015560608201518160030155505060016000815480929190610153906104fd565b919050555050565b60606002805480602002602001604051908101604052809291908181526020016000905b8282101561022557838290600052602060002090600402016040518060800160405290816000820160009054906101000a900473ffffffffffffffffffffffffffffffffffffffff1673ffffffffffffffffffffffffffffffffffffffff1673ffffffffffffffffffffffffffffffffffffffff16815260200160018201548152602001600282015481526020016003820154815250508152602001906001019061017f565b50505050905090565b6102c48160405160240161024291906105d5565b6040516020818303038152906040527f41304fac000000000000000000000000000000000000000000000000000000007bffffffffffffffffffffffffffffffffffffffffffffffffffffffff19166020820180517bffffffffffffffffffffffffffffffffffffffffffffffffffffffff83818316178352505050506102c7565b50565b60008151905060006a636f6e736f6c652e6c6f679050602083016000808483855afa5050505050565b600080fd5b6000819050919050565b610308816102f5565b811461031357600080fd5b50565b600081359050610325816102ff565b92915050565b600060208284031215610341576103406102f0565b5b600061034f84828501610316565b91505092915050565b600081519050919050565b600082825260208201905092915050565b6000819050602082019050919050565b600073ffffffffffffffffffffffffffffffffffffffff82169050919050565b60006103af82610384565b9050919050565b6103bf816103a4565b82525050565b6103ce816102f5565b82525050565b6080820160008201516103ea60008501826103b6565b5060208201516103fd60208501826103c5565b50604082015161041060408501826103c5565b50606082015161042360608501826103c5565b50505050565b600061043583836103d4565b60808301905092915050565b6000602082019050919050565b600061045982610358565b6104638185610363565b935061046e83610374565b8060005b8381101561049f5781516104868882610429565b975061049183610441565b925050600181019050610472565b5085935050505092915050565b600060208201905081810360008301526104c6818461044e565b905092915050565b7f4e487b7100000000000000000000000000000000000000000000000000000000600052601160045260246000fd5b6000610508826102f5565b91507fffffffffffffffffffffffffffffffffffffffffffffffffffffffffffffffff820361053a576105396104ce565b5b600182019050919050565b600081519050919050565b600082825260208201905092915050565b60005b8381101561057f578082015181840152602081019050610564565b60008484015250505050565b6000601f19601f8301169050919050565b60006105a782610545565b6105b18185610550565b93506105c1818560208601610561565b6105ca8161058b565b840191505092915050565b600060208201905081810360008301526105ef818461059c565b90509291505056fea26469706673582212209400aeb0158f79d318c2932ec982641c5e1154dcb92e728f4bbc31de0ef83e2e64736f6c63430008110033",
  "linkReferences": {},
  "deployedLinkReferences": {}
}