{
  "_format": "hh-sol-artifact-1",
  "contractName": "SkillSbt",
  "sourceName": "contracts/SkillSbt.sol",
  "abi": [
    {
      "inputs": [],
      "stateMutability": "nonpayable",
      "type": "constructor"
    },
    {
      "inputs": [],
      "name": "getSkillSbts",
      "outputs": [
        {
          "components": [
            {
              "internalType": "address",
              "name": "owner",
              "type": "address"
            },
            {
              "internalType": "uint256",
              "name": "timestamp",
              "type": "uint256"
            },
            {
              "internalType": "uint256",
              "name": "id",
              "type": "uint256"
            },
            {
              "internalType": "uint256",
              "name": "quizId",
              "type": "uint256"
            },
            {
              "internalType": "uint256",
              "name": "scoringQuizId",
              "type": "uint256"
            },
            {
              "internalType": "address",
              "name": "answerer",
              "type": "address"
            }
          ],
          "internalType": "struct skillSbt[]",
          "name": "",
          "type": "tuple[]"
        }
      ],
      "stateMutability": "view",
      "type": "function"
    },
    {
      "inputs": [
        {
          "internalType": "uint256",
          "name": "_quizId",
          "type": "uint256"
        }
      ],
      "name": "mint",
      "outputs": [],
      "stateMutability": "nonpayable",
      "type": "function"
    },
    {
      "inputs": [
        {
          "internalType": "uint256",
          "name": "_quizId",
          "type": "uint256"
        }
      ],
      "name": "setScoringQuizId",
      "outputs": [],
      "stateMutability": "nonpayable",
      "type": "function"
    }
  ],
  "bytecode": "0x60806040527fffffffffffffffffffffffffffffffffffffffffffffffffffffffffffffffff60025534801561003457600080fd5b5061007d6040518060400160405280601981526020017f57652068617665206265656e20636f6e7374727563746564210000000000000081525061036660201b6103fb1760201c565b600060018190555060036040518060c001604052807370997970c51812dc3a010c7d01b50e0d17dc79c873ffffffffffffffffffffffffffffffffffffffff1681526020014281526020016001548152602001600081526020016002548152602001600073ffffffffffffffffffffffffffffffffffffffff16815250908060018154018082558091505060019003906000526020600020906006020160009091909190915060008201518160000160006101000a81548173ffffffffffffffffffffffffffffffffffffffff021916908373ffffffffffffffffffffffffffffffffffffffff1602179055506020820151816001015560408201518160020155606082015181600301556080820151816004015560a08201518160050160006101000a81548173ffffffffffffffffffffffffffffffffffffffff021916908373ffffffffffffffffffffffffffffffffffffffff1602179055505050600160008154809291906101ee90610467565b919050555060036040518060c00160405280733c44cdddb6a900fa2b585dd299e03d12fa4293bc73ffffffffffffffffffffffffffffffffffffffff1681526020014281526020016001548152602001600081526020016002548152602001600073ffffffffffffffffffffffffffffffffffffffff16815250908060018154018082558091505060019003906000526020600020906006020160009091909190915060008201518160000160006101000a81548173ffffffffffffffffffffffffffffffffffffffff021916908373ffffffffffffffffffffffffffffffffffffffff1602179055506020820151816001015560408201518160020155606082015181600301556080820151816004015560a08201518160050160006101000a81548173ffffffffffffffffffffffffffffffffffffffff021916908373ffffffffffffffffffffffffffffffffffffffff16021790555050506001600081548092919061035c90610467565b9190505550610561565b6104028160405160240161037a919061053f565b6040516020818303038152906040527f41304fac000000000000000000000000000000000000000000000000000000007bffffffffffffffffffffffffffffffffffffffffffffffffffffffff19166020820180517bffffffffffffffffffffffffffffffffffffffffffffffffffffffff838183161783525050505061040560201b60201c565b50565b60008151905060006a636f6e736f6c652e6c6f679050602083016000808483855afa5050505050565b7f4e487b7100000000000000000000000000000000000000000000000000000000600052601160045260246000fd5b6000819050919050565b60006104728261045d565b91507fffffffffffffffffffffffffffffffffffffffffffffffffffffffffffffffff82036104a4576104a361042e565b5b600182019050919050565b600081519050919050565b600082825260208201905092915050565b60005b838110156104e95780820151818401526020810190506104ce565b60008484015250505050565b6000601f19601f8301169050919050565b6000610511826104af565b61051b81856104ba565b935061052b8185602086016104cb565b610534816104f5565b840191505092915050565b600060208201905081810360008301526105598184610506565b905092915050565b61084f80620005716000396000f3fe608060405234801561001057600080fd5b50600436106100415760003560e01c8063a0712d6814610046578063ad57534114610062578063de7308261461007e575b600080fd5b610060600480360381019061005b91906104f8565b61009c565b005b61007c600480360381019061007791906104f8565b6101f8565b005b6100866102c8565b604051610093919061069f565b60405180910390f35b60036040518060c001604052803373ffffffffffffffffffffffffffffffffffffffff16815260200142815260200160015481526020018381526020016002548152602001600073ffffffffffffffffffffffffffffffffffffffff16815250908060018154018082558091505060019003906000526020600020906006020160009091909190915060008201518160000160006101000a81548173ffffffffffffffffffffffffffffffffffffffff021916908373ffffffffffffffffffffffffffffffffffffffff1602179055506020820151816001015560408201518160020155606082015181600301556080820151816004015560a08201518160050160006101000a81548173ffffffffffffffffffffffffffffffffffffffff021916908373ffffffffffffffffffffffffffffffffffffffff1602179055505050600160008154809291906101f0906106f0565b919050555050565b60005b6003805490508110156102c3573373ffffffffffffffffffffffffffffffffffffffff166003828154811061023357610232610738565b5b906000526020600020906006020160000160009054906101000a900473ffffffffffffffffffffffffffffffffffffffff1673ffffffffffffffffffffffffffffffffffffffff16036102b057816003828154811061029557610294610738565b5b906000526020600020906006020160030181905550506102c5565b80806102bb906106f0565b9150506101fb565b505b50565b60606003805480602002602001604051908101604052809291908181526020016000905b828210156103f257838290600052602060002090600602016040518060c00160405290816000820160009054906101000a900473ffffffffffffffffffffffffffffffffffffffff1673ffffffffffffffffffffffffffffffffffffffff1673ffffffffffffffffffffffffffffffffffffffff168152602001600182015481526020016002820154815260200160038201548152602001600482015481526020016005820160009054906101000a900473ffffffffffffffffffffffffffffffffffffffff1673ffffffffffffffffffffffffffffffffffffffff1673ffffffffffffffffffffffffffffffffffffffff1681525050815260200190600101906102ec565b50505050905090565b6104918160405160240161040f91906107f7565b6040516020818303038152906040527f41304fac000000000000000000000000000000000000000000000000000000007bffffffffffffffffffffffffffffffffffffffffffffffffffffffff19166020820180517bffffffffffffffffffffffffffffffffffffffffffffffffffffffff8381831617835250505050610494565b50565b60008151905060006a636f6e736f6c652e6c6f679050602083016000808483855afa5050505050565b600080fd5b6000819050919050565b6104d5816104c2565b81146104e057600080fd5b50565b6000813590506104f2816104cc565b92915050565b60006020828403121561050e5761050d6104bd565b5b600061051c848285016104e3565b91505092915050565b600081519050919050565b600082825260208201905092915050565b6000819050602082019050919050565b600073ffffffffffffffffffffffffffffffffffffffff82169050919050565b600061057c82610551565b9050919050565b61058c81610571565b82525050565b61059b816104c2565b82525050565b60c0820160008201516105b76000850182610583565b5060208201516105ca6020850182610592565b5060408201516105dd6040850182610592565b5060608201516105f06060850182610592565b5060808201516106036080850182610592565b5060a082015161061660a0850182610583565b50505050565b600061062883836105a1565b60c08301905092915050565b6000602082019050919050565b600061064c82610525565b6106568185610530565b935061066183610541565b8060005b83811015610692578151610679888261061c565b975061068483610634565b925050600181019050610665565b5085935050505092915050565b600060208201905081810360008301526106b98184610641565b905092915050565b7f4e487b7100000000000000000000000000000000000000000000000000000000600052601160045260246000fd5b60006106fb826104c2565b91507fffffffffffffffffffffffffffffffffffffffffffffffffffffffffffffffff820361072d5761072c6106c1565b5b600182019050919050565b7f4e487b7100000000000000000000000000000000000000000000000000000000600052603260045260246000fd5b600081519050919050565b600082825260208201905092915050565b60005b838110156107a1578082015181840152602081019050610786565b60008484015250505050565b6000601f19601f8301169050919050565b60006107c982610767565b6107d38185610772565b93506107e3818560208601610783565b6107ec816107ad565b840191505092915050565b6000602082019050818103600083015261081181846107be565b90509291505056fea2646970667358221220b147694ca9982c94139d41447a5a9ebf80cb7de106b9444ce5cadde07decb1b064736f6c63430008110033",
  "linkReferences": {},
  "deployedLinkReferences": {}
}